:020000040800F2
:1000000050060020DD010008B72A00080D2800086E
:10001000B52A0008350A00089B2E000800000000E1
:10002000000000000000000000000000BB2A0008E3
:10003000E90A000800000000B92A0008BD2A0008EB
:10004000F7010008F7010008F7010008F7010008B0
:10005000F7010008F7010008F7010008F7010008A0
:10006000F7010008F7010008F7010008F701000890
:10007000F7010008F7010008F7010008F701000880
:10008000F7010008F701000801090008F70100085E
:10009000F7010008F7010008F7010008F701000860
:1000A000F7010008752B0008692B0008F70100080C
:1000B000F7010008F7010008F7010008F701000840
:1000C000F7010008F7010008F7010008F701000830
:1000D000F7010008F7010008F7010008F701000820
:1000E000F7010008F7010008F7010008F701000810
:1000F000812B0008F7010008F7010008F70100084C
:10010000F7010008F7010008F7010008F7010008EF
:10011000F7010008F7010008F7010008F7010008DF
:10012000390A0008F7010008F7010008F701000884
:10013000F70100080000000000000000F7010008BF
:10014000F7010008F7010008F7010008F7010008AF
:10015000F7010008F7010008F7010008F70100089F
:10016000F7010008F7010008F7010008F70100088F
:10017000F7010008F7010008F7010008000000007F
:1001800000000000F701000800000000000000006F
:10019000F70100080000000000000000F70100085F
:1001A000000000000000000000000000F70100084F
:1001B000F7010008F7010008F7010008F70100083F
:1001C000F7010008DFF810D000F0D2FA004800472D
:1001D000C9380008AFF30080500600200648804769
:1001E00006480047FEE7FEE7FEE7FEE7FEE7FEE71C
:1001F000FEE7FEE7FEE7FEE7592B0008C501000811
:100200002DE9F05F0546002092469B46884606464B
:10021000814640241BE0284641464746224600F0DE
:1002200083F853465A46C01A914110D311461846D6
:10023000224600F06AF82D1A67EB01084F46224665
:100240000120002100F061F817EB00094E41201E4B
:10025000A4F10104DFDC484631462A464346BDE8A6
:10026000F09FD2B201E000F8012B491EFBD270478B
:100270000022F6E710B513460A4604461946FFF772
:10028000F0FF204610BDC1F30A5210B5C1F31301AF
:1002900040F2FF3341F480119A4201DA002010BD90
:1002A00040F233439A42A2F2334203DC524200F05E
:1002B0003BF810BD904010BD00F0004230F000400F
:1002C0000AD0C10D01F56071C0F3160042EA015178
:1002D000C20840071143704700200146704730B5FF
:1002E0000B46014600202022012409E021FA02F5F4
:1002F0009D4205D303FA02F5491B04FA02F528448E
:10030000151EA2F10102F1DC30BD202A04DB203AE7
:1003100000FA02F1002070479140C2F1200320FA58
:1003200003F3194390407047202A04DB203A21FA56
:1003300002F00021704721FA02F3D040C2F12002FE
:1003400091400843194670472DE9FE4F804681EAE7
:100350000300C00F0C46009021F0004123F000453F
:10036000B8EB0200A94105D24046214690461C4602
:100370000B46024623F00040104347D0270DC7F339
:100380000A00C3F30A510290401A019040286BDA28
:10039000C3F3130040F4801B0098924620B1002361
:1003A000D2EB030A63EB0B0B01985946C0F14002F4
:1003B0005046FFF7AAFF06460D4650465946019A99
:1003C00000F0E8F910EB08006141002487EA1152BF
:1003D00084EAE7731A4340D0009A62B3019A012A73
:1003E0004FEA075215DC001B61EB02014FF000429F
:1003F00002EA0752CDE90042001C41F58011324665
:100400002B4600F0E8F903B0BDE8F08F40462146E6
:10041000F9E7001B61EB0201001C41F58013001895
:100420005B412018A2F5001747EB030140EAD570A5
:10043000B6196D4111E06D084FEA360645EAC07500
:100440004FEA0752001B61EB0201001C41F58011CD
:1004500049084FEA30000019514132462B4603B09B
:10046000BDE8F04F00F0A8B9009801224000002339
:10047000D0EB020263EBE073009821464FEAE07490
:10048000B8EB000061EB0401E9E783F000435BE7B0
:1004900081F0004158E72DE9FE4F81EA030404F0A2
:1004A000004421F0004100944FF0000B23F0004382
:1004B00050EA01045ED052EA03045BD0C3F30A544D
:1004C000C1F30A552C44A4F2F3340194A0FB025466
:1004D000C1F3130141F48011C3F3130343F48013F8
:1004E00001FB024400FB034E840A970A44EA81544C
:1004F00047EA8357A4FB076802958D0A05FB078529
:100500004FEA932C04FB0C542705029D4FEA065832
:1005100047EA1637B5EB08056EEB070C870E920E0F
:1005200047EA811742EA8312A7FB0201B6EB0B01EF
:1005300064EB00042B0D43EA0C335E1844EB1C50B3
:10054000DA465146E7FB0201C5F313044FEA0B33C9
:1005500043EA14534FEA0432019C43EA0603A4F130
:100560000C040294009CCDE900B400F034F903B00F
:10057000BDE8F08F00200146F9E72DE9F04D81EA52
:10058000030404F0004B21F0004514464FF0000A2C
:1005900023F0004150EA050220D054EA01021DD0A8
:1005A000C5F30A570246C5F31303C1F31300C1F3A1
:1005B0000A5640F4801543F48013A7EB0608101B7D
:1005C000D64608F2FD3873EB050002D308F10108A6
:1005D00001E092185B41B8F1000F03DA00200146F8
:1005E000BDE8F08D00204FF48011064684460EE0F1
:1005F000171B73EB050705D3121B63EB05030643BB
:100600004CEA010C49084FEA300092185B4150EA6D
:100610000107EDD152EA030012D082EA040083EA16
:100620000501084305D0101BAB4106D2012200236F
:1006300006E000224FF0004302E06FF00102531089
:100640001AEB06004CEB085110EB0A0041EB0B01D2
:10065000BDE8F04D00F0B0B82DE9F041054621F0BD
:1006600000400C46284309D0C4F30A5040F23341FD
:10067000884205DD28462146BDE8F0812846FBE793
:1006800040F2FE31884210DC0CDB4FEA043040EAD5
:10069000155050EA053105D0104804F000410143DF
:1006A0000020E9E700200146E6E7A0F23340464299
:1006B000C6F1400228462146FFF727FE0746884636
:1006C000284621463246FFF72FFE43463A4600F0C1
:1006D00073F83246BDE8F041FFF717BE0000F03F67
:1006E000C1F30A52C1F3130140F2FF3341F4801108
:1006F0009A4202DA00200146704740F233439A42A0
:10070000A2F2334202DC5242FFF70EBEFFF7FDBDFC
:1007100030B5041E71F1000404DB4FF00044404288
:1007200064EB0101141E73F1000405DB1C464FF05D
:100730000043524263EB04038B4208BF824230BD48
:1007400030B5041E71F1000404DB4FF00044404258
:1007500064EB0101141E73F1000405DB1C464FF02D
:100760000043524263EB0403994208BF904230BDFC
:10077000064C074D06E0E06840F0010394E80700EE
:1007800098471034AC42F6D3FFF720FD88390008B3
:10079000A8390008202A06DBCB17203A41FA02F0DC
:1007A00043EAE07306E041FA02F3D040C2F12002CE
:1007B000914008431946704710B5141E73F10004A8
:1007C00008DA401C41F1000192185B411A4301D143
:1007D00020F0010010BD2DE9F04D92469B4611B16D
:1007E000B1FA81F202E0B0FA80F220329046FFF7CF
:1007F0008CFD04460F4640EA0A0041EA0B015346CD
:100800005A46084313D0114653EA010019D0C8F1E3
:1008100040025046FFF788FD05460E4650465946B1
:100820004246FFF772FD084305D0012004E0204650
:100830003946BDE8F08D0020054346EAE0762C43BA
:1008400037430A986305E40AA0EB08000022FD0A7A
:1008500044EA47540A3002D500200146E9E7010581
:1008600010196941DDE9084500196941BDE8F04DFD
:10087000A2E710B50146806B026C12F0500F05D054
:10088000026CD20626D500F0E7F910BD016C41F4E8
:100890000071016401688A6812F0405F17D1027E1E
:1008A000AAB9CA6A12F4700F02D08A6852050ED42F
:1008B0004A6822F020024A60016C21F480710164D0
:1008C000016CC90403D4016C41F00101016400F022
:1008D000C1F910BD806BC26CBDE8104008461047DE
:1008E00010B5806B40210164416C41F0040141640A
:1008F00000F0B2F910BD10B5806B00F0ACF910BD7E
:10090000014800F0AAB900002C000020464910B5AB
:100910004A6822F440324A604A6843681A434A608F
:1009200001684A6822F480724A6001684A68036973
:1009300042EA03224A6001684A6822F040724A6033
:1009400001684A6883681A434A6001688A6822F429
:1009500000628A6001688A68C3681A438A60816A93
:100960006FF07062D14201688A6822F070628A601A
:1009700001688A680CD0836A1A438A6001688A68B1
:1009800022F040528A6001688A68C36A1A4301E013
:1009900022F040528A6001688A6822F002028A606E
:1009A00001688A68037E42EA43028A6090F8201058
:1009B000002901684A680FD042F400624A60016869
:1009C0004A6822F460424A6001684A68174C436AE8
:1009D00004EB43331A4301E022F400624A600168E9
:1009E000CA6A22F47002CA620168CA6A838B104C18
:1009F00004EB03531A43CA6201688A6822F4007246
:100A00008A6001688A6890F8303042EA43228A603E
:100A100001688A6822F480628A6001688A68406995
:100A200042EA8020886010BD0023014000E0FFFF03
:100A30000000F0FFFEE70000014800F0FBBB0000F3
:100A40007400002001681823CAB2103AB2FBF3F216
:100A5000054B6FF30901032A9B5CC36500D9091D8F
:100A600081650846704700006839000810B50146E6
:100A700000208B698A6A4FF0C07453B1B3F5005FF0
:100A800015D072B1012A0CD0022A0AD0032A09D14A
:100A900004E01AB1012A06D0022A03D1C96AC901A9
:100AA00000D5012010BDC96AA142FAD010BD002AAC
:100AB000F7D0012AF2D0022AF3D0032AF3D010BDD6
:100AC00030B50468256825F48025256004686360D6
:100AD0008368402B036803D099600068C26030BD12
:100AE0009A600068C16030BD704772B6FEE770471B
:100AF00078B50024009490F83C20012A19D00122F6
:100B000080F83C200A6807230568092A13D9EE6893
:100B10000A3A02EB420293409E43EE600B788A68E9
:100B20000A3B03EB43039A400368DD682A43DA601B
:100B300010E0022078BD2E6902EB420293409E43F2
:100B40002E610B788A6803EB43039A4003681D69A2
:100B50002A431A614A681F23072A13D205686E6B5D
:100B6000521E02EB820293409E436E630A8893B248
:100B70000A79521E02EB820293400268556B2B43A6
:100B8000536327E005680D2A12D22E6BD21F02EBA9
:100B9000820293409E432E630B790A88DB1F92B238
:100BA00003EB83039A4003681D6B2A431A6311E029
:100BB000EE6A0D3A02EB820293409E43EE620B799D
:100BC0000A880D3B92B203EB83039A400368DD6A07
:100BD0002A43DA621B4B0568194A9D420AD10D6807
:100BE000122D07D1556825F400055560556845F468
:100BF0008005556005689D421DD1134D0B68AB42C1
:100C000001D0112B17D1536823F48003536053682C
:100C100043F4000353600968A9420CD10B490C4A04
:100C20000968B1FBF2F101EB8101490000E0491EC6
:100C300000910029FBD180F83C40002078BD0000E5
:100C40000023014000200140120000102400002079
:100C500040420F0070477047704770B50446006807
:100C60000668456816F0020F05F020012AD049B346
:100C7000216CC90603D4216C41F4007121648168A0
:100C800011F0405F17D1217EA9B9C16A11F4700F2C
:100C900002D0816849050ED4416821F020014160ED
:100CA000206C20F480702064206CC00403D4206C7D
:100CB00040F0010020642046FFF7CCFF21686FF070
:100CC0001200086016F0040F05F0800132D089B3DD
:100CD000206CC00603D4206C40F4005020642068CF
:100CE000816811F4401F1ED1816B11F4401F02D0A6
:100CF0008168490517D44168490514D4816811F009
:100D0000405F10D1217E71B9416821F080014160BE
:100D1000206C20F480502064206CC00503D4206C2B
:100D200040F0010020642046FFF7E1FE21686FF0EB
:100D30000C00086016F0010F05F040010FD071B1F2
:100D400020680068C0070AD0206C40F4803020641E
:100D5000204600F043F821686FF00100086016F0AB
:100D6000200F05F080610ED000290CD0606C40F09F
:100D70000200606420686FF0200505602046FFF7E0
:100D80006BFF2068056070BD70B504004FF0000572
:100D900003D0206C002610B107E0012070BD204672
:100DA00000F01EF8666484F83C60206CC00610D425
:100DB000206C20F4885040F0020020642046FFF7A9
:100DC000A5FD6664206C20F0020040F00100206464
:100DD00000E0012584F83C60284670BD70470000A3
:100DE00070B586B0064614216846FFF741FA2149DE
:100DF000306888423BD120480025016841F4807169
:100E00000160006800F4807005901B481438016888
:100E100041F0010101600068694600F001000590A1
:100E200003200090CDE90105144800F075FB154C36
:100E30001348C4E900050015A560C4E9035040004B
:100E400060618000A0614011C4E907052046656229
:100E500000F0C0FA08B1FFF748FEB4630022114663
:100E60001220A66300F0BCFC122000F0ABFC06B020
:100E700070BD0000002001404438024000000240E4
:100E8000106402407400002018B50021009190F811
:100E90003C20012A07D0012280F83C200268936898
:100EA000DB0702D011E0022018BD936843F0010374
:100EB00093602E4A2E4B1268B2FBF3F202EB420211
:100EC00000E0521E0092002AFBD102689368DB0703
:100ED00042D0036C40F20164A34343F48073036483
:100EE00053685B0505D5036C23F4005343F480532A
:100EF0000364036CDB0404D5436C23F006034364F2
:100F000000E0416480F83C101A496FF0220313603E
:100F100049680068CA06184906D0884224D1816809
:100F200011F0405F13D01FE08842F8D0134A90427E
:100F300003D1D1F80423D206F1D0114A904213D143
:100F4000D1F8041301F01F011029E8D30CE08168E7
:100F500041F08041816007E0016C41F010010164C3
:100F6000416C41F001014164002018BD24000020C3
:100F700040420F00002301400020014000210140B9
:100F800000220140F8B5044600200E46009094F877
:100F90003C10012907D0012184F83C1021688B689E
:100FA000DB0702D011E00220F8BD8B6843F001039B
:100FB0008B604049404B0968B1FBF3F101EB410103
:100FC00000E0491E00910029FBD121688B68DB05F8
:100FD00003D58B6823F480738B6021688B68DB07F3
:100FE0005DD0236C40F20165AB4343F4807323640E
:100FF0004968490505D5216C21F4005141F480511F
:101000002164216CC90404D5616C21F0060161647E
:1010100000E0606484F83C00A16B2948274DC86358
:10102000A16B28480864A16B2748C86421686FF049
:10103000220008602068416841F0806141602068BA
:10104000816841F4807181602168134632464C31D9
:10105000A06B00F029FA68681C49C006206806D019
:10106000884224D1816811F0405F13D01FE088428C
:10107000F8D0174A904203D1D1F80423D206F1D018
:10108000144A904213D1D1F8041301F01F01102922
:10109000E8D30CE0816841F08041816007E0206C7A
:1010A00040F010002064606C40F00100606400209B
:1010B000F8BD00002400002040420F000023014042
:1010C00073080008F7080008E10800080020014044
:1010D000002101400022014070B500B3F9B143790D
:1010E000012B1ED0012646710223037105682C686E
:1010F00002F0100340F6FE729A409443D1E90021B9
:101100000A439A4022432A6001680A68C0249C402E
:10111000A2430A60067100214171084670BD01209A
:1011200070BD022070BD70B5040003D02079002589
:1011300010B105E0012070BD6571204600F008F88F
:1011400002202071256101202071002070BD000067
:1011500010B586B0044614216846FFF789F8114996
:10116000206888421CD110480021026842F00052D9
:101170000260006800F0005005900B4810380268CB
:1011800042F001020260006800F00100059030208A
:1011900000900320CDE901016946044800F0BCF944
:1011A00006B010BD0074004040380240000002400C
:1011B00018B50024009440B100680090104431B18B
:1011C000143000900360002018BD012018BD0830C5
:1011D000F7E770B508B34279012A20D001224271A5
:1011E000022303710468266801F0100302FA03F574
:1011F0002E4326600029016813D00C6804F4701592
:101200003C249C40A54203D14B6843F002034B6051
:10121000027100214171084670BD012070BD02209D
:1012200070BD0B68C3F383030F2BF1D14B6843F000
:101230000103ECE72DE9F84304464FF00009CDF82F
:10124000009063484FF41651A56D0068B0FBF1F7AC
:101250002E6894F85C10082000FA01F131420FD09A
:1012600021680A6852070BD50A6822F004020A6056
:1012700094F85C108840A860606D40F001006065E3
:1012800094F85C104FF0010808FA01F0304208D0E1
:1012900021684969090604D5A860606D40F0020024
:1012A000606594F85C1004208840304208D02168C2
:1012B0000968890704D5A860606D40F00400606586
:1012C00094F85C1010208840304218D021680968DA
:1012D000090714D5A86020680168490304D500688F
:1012E000000308D5A16C07E00168C90503D40168B3
:1012F00021F008010160216C09B12046884794F86B
:101300005C1020208840304231D021680968C9062D
:101310002DD5A86094F8350005282068016806D00E
:10132000490347D5006800031DD4616C1CE021F01F
:10133000160101602068416921F080014161206C43
:1013400008B9A06C20B12068016821F00801016093
:1013500094F85C103F208840A86084F8358084F8B9
:101360003490216D1FE0E16B09B120468847606D24
:1013700000282BD0606DC00714D0052084F83500FC
:101380002068016821F0010101600098401C009074
:10139000B84203D820680068C007F6D184F83580C9
:1013A00084F83490E16C002910D001B02046BDE8EB
:1013B000F04308470168C905D5D4016821F0100140
:1013C000016084F8358084F83490CCE7BDE8F88378
:1013D000240000202DE9F041044600F091F9064672
:1013E0005CB1022084F83500002584F83450206870
:1013F000016821F0010101600DE00120BDE8F081EC
:1014000000F07EF9801B052805D9202060650320A7
:1014100084F83500F2E720680068C007F0D1226840
:10142000116820480140D4E901031843D4E9033688
:101430003343184363691843A3691843E3691843A6
:10144000236A18430843616A042903D1D4E90B13C2
:1014500019430843106020684069666A20F007015C
:1014600030460E43012704280CD1A06A0643E06AE7
:1014700040B12046FFF7FAFA20B14020606584F8B9
:101480003570BAE7206846612046FFF7DBFA94F82A
:101490005C203F2191408160656584F835700020B3
:1014A000ACE700003F8010F02DE9F0410446866D66
:1014B00090F83400002501280DD0012084F8340074
:1014C00094F835700020012F07D084F834000225ED
:1014D0002846BDE8F0810220FBE7022784F835703A
:1014E00060652046FFF7ECFA94F85C103F208840D6
:1014F000B0602068016841F016010160206C20B1E5
:101500002068016841F0080101602068016841F02D
:1015100001010160DCE700002DE9F84FDFF8ACA124
:101520000022012403254FF00F090AF1040BAAF150
:10153000040E00BF0B6804FA02F63340B3426ED1CA
:101540000F7907F00307012F01D0022F16D187680A
:101550004FEA420805FA08FC27EA0C07D1F80CC04C
:101560000CFA08FC4CEA070CC0F808C04768B743FF
:101570000E79C6F3001696403E4346600E79F64358
:10158000B6070AD0C6684FEA420C05FA0CF7BE430C
:101590008F6807FA0CF73743C7600E7906F0030629
:1015A000022E10D1D60800EB8608D8F82060570725
:1015B0004FEAD76C09FA0CF7BE430F6907FA0CF72C
:1015C0003743C8F8207006684FEA420C05FA0CF75A
:1015D000BE430F7907F0030707FA0CF7374307609C
:1015E0004E6816F4403F6BD0394E376847F4804759
:1015F0003760366822F0030706F480460096354EC1
:1016000007EB060CDCF8086897074FEA177809FA29
:1016100008F7BE43304FB84202D100271FE04FE029
:101620002E4FB84201D1012719E02D4FB84201D108
:10163000022714E02B4FB84201D103270FE02A4FB5
:10164000B84201D104270AE0284FB84201D105274A
:1016500005E0274FB84201D1062700E0072707FA27
:1016600008F73743CCF80878DAF800605746D1F825
:1016700004C09E435FEACC2C00D51E433E60DBF8DD
:1016800000605F46D1F804C09E435FEA8C2C00D511
:101690001E433E60DEF800607746D1F804C09E43EA
:1016A0005FEA8C3C00D51E433E60084F083F3E6811
:1016B000D1F804C09E435FEACC3C00D51E433E6097
:1016C000521C102AFFF436AFBDE8F88F083C0140E9
:1016D0004438024000300140000002400004024053
:1016E00000080240000C02400010024000140240BA
:1016F000001802400069084000D001207047000037
:101700000148806870470000180000200248816886
:101710000278114481607047180000200B4810B512
:10172000016841F400710160016841F48061016069
:10173000016841F480710160032000F071F800201D
:1017400000F006F800F024F8002010BD003C024034
:1017500070B50D4D04464FF47A712878B1FBF0F066
:101760000A490968B1FBF0F000F03CFB48B9102CC5
:1017700007D200222146501E00F032F800206C6093
:1017800070BD012070BD0000180000202400002062
:101790000B4882B0016841F480410160006800F4A8
:1017A000804000900648001F016841F080510160B0
:1017B000006800F080500090072002B000F030B8C0
:1017C00044380240002809DB00F01F02012191404B
:1017D0004009800000F1E020C0F8001170470000CF
:1017E000F0B40E4B1B680C46C3F30223C3F107058C
:1017F000042D00D90425191D072901D2002300E07A
:10180000DB1E012606FA05F1491E214099409E4043
:10181000761E16403143F0BC01F050BB0CED00E0E9
:10182000064900F0070208684FF6FF03184040EA37
:101830000220034A10430860704700000CED00E0EE
:101840000000FA052DE9F0470E46050065D0DFF8E7
:101850001481D8F80000F7B200F00F00B04207D2B0
:1018600088F80070D8F8000000F00F00B04254D1A2
:1018700028683D4C810712D5400703D5206840F405
:10188000E05020602878000703D5206840F46040CD
:1018900020602068A96820F0F000084320602878C4
:1018A000C0072DD0304968680839012812D00228B5
:1018B00013D0032811D00968890700292DDA21687F
:1018C00021F0030101432160FFF71AFF814641F235
:1018D000883A0EE009688903EFE709688901ECE7B7
:1018E000FFF70EFFA0EB0901514502D90320BDE827
:1018F000F0872068696800F00C00B0EB810FEFD131
:10190000D8F80010404601F00F01B14207D9077026
:10191000006800F00F00B04201D00120E7E728780E
:10192000400705D52068E96820F4E05008432060AE
:101930002878000706D52068296920F4604040EA2D
:10194000C100206000F038F82168084AC1F3031193
:10195000515CC8400649086006480068FFF7F8FE79
:101960000020C4E7003C02400838024070390008FB
:10197000240000201C000020044805490068096874
:10198000044AC1F38221515CC84070472400002002
:101990000838024080390008044805490068096891
:1019A000044AC1F34231515CC84070472400002012
:1019B0000838024080390008224810B5006810F04D
:1019C0000C02214815D04110042A11D01D4C241FAF
:1019D000082A0FD00C2A0CD12268236802F03F029B
:1019E0005B0221D52068C0F38810A0FB010120E034
:1019F000084610BD2268236802F03F025B0205D54D
:101A00002068C0F38810A0FB010104E02168C1F345
:101A10008811A1FB00010023FEF7F2FB2168C1F34E
:101A20000141491C49000AE02168C1F38811A1FB6A
:101A300000010023FEF7E4FB2168C1F30271B0FB53
:101A4000F1F010BD083802400024F4002DE9F84FF1
:101A500004007DD0DFF878B32078ABF10407C0072D
:101A6000A7F1040550D0DBF800105846C1F38101FE
:101A700001290FD00168C1F38101022902D139681F
:101A8000490207D40068C0F38100032809D13868EF
:101A9000400206D52868800336D560680028D8D073
:101AA00032E06068B0F5803F10D0B0F5A02F286814
:101AB00010D020F480302860286820F4802028602E
:101AC0006068A0B1FFF71CFE06460CE0286840F4F1
:101AD0008030F4E740F480202860F7E7FFF710FE3D
:101AE000801B642876D828688003F7D50CE0FFF7C0
:101AF00007FE064605E000BFFFF702FE801B6428D4
:101B0000F0D828688003F7D42078DFF8C8928007DF
:101B10004FF0000A44D5DBF80010584611F00C0FC6
:101B20000FD00168C1F38101022902D1396849024D
:101B300007D50068C0F3810003280AD13868400245
:101B400007D42868800715D5E068012800D111E086
:101B50003AE1E068B0B10120C9F80000FFF7D0FD1C
:101B6000064604E0FFF7CCFD801B0228BAD828689F
:101B70008007F7D52868216920F0F80040EAC10005
:101B800028600DE0C9F800A0FFF7BAFD064604E0A2
:101B9000FFF7B6FD801B02281CD828688007F7D401
:101BA0002078000727D5DFF828828B48616908F183
:101BB0006C0881B101210160FFF7A2FD064604E037
:101BC000FFF79EFD801B022804D8D8F8000080078C
:101BD000F6D510E089E0C0F800A0FFF791FD0646B9
:101BE00005E000BFFFF78CFD801B02287DD8D8F8E8
:101BF00000008007F6D42078400769D574484FF07C
:101C0000000838300068C0000BD4714838300168D3
:101C100041F08051016000684FF0010800F08050F1
:101C200000906E4E3068C00511D4306840F480706A
:101C30003060FFF765FD009006E000BFFFF760FD34
:101C40000099401A022850D83068C005F6D5604E79
:101C5000A068683601280FD00528306810D020F021
:101C600001003060306820F004003060A068B8B136
:101C7000FFF746FD00900FE0306840F00100F4E708
:101C800040F004003060F7E7FFF73AFD0099411A91
:101C900041F28830814264D830688007F4D50EE084
:101CA000FFF72EFD009007E0FFF72AFD0099411A8B
:101CB00041F28830814254D830688007F4D4B8F1BA
:101CC000000F05D042483830016821F08051016092
:101CD000A069A8B3DBF80010C1F38101022947D045
:101CE0000228C9F860A005D000E03AE0FFF708FD3F
:101CF000044639E0FFF704FD064604E0FFF700FD67
:101D0000801B02282DD828688001F7D4F4E9070148
:101D10000843E168324A490802EB0141A26841EAFE
:101D200082110843217C40EA0160217D40EA017074
:101D300038600120C9F86000FFF7E2FC044606E0C5
:101D400044E000BFFFF7DCFC001B022809D828682C
:101D50008001F7D53AE000BFFFF7D2FC001B022854
:101D600002D90320BDE8F88F28688001F4D42DE063
:101D70000128F7D03868E26900F48001914223D14C
:101D8000226A00F03F0191421ED147F6C071626A9B
:101D90000140B1EB821F17D1A26A4FF0FF3300F46C
:101DA000403103EB5202B1EB024F0DD194F82C20DD
:101DB00000F07061B1EB026F06D194F8301000F0C2
:101DC000E040B0EB017F01D00120CBE70020C9E764
:101DD0000838024000004742800E47420070004031
:101DE0000000FFFF10B5401EB0F1807F01D301203D
:101DF00010BD4FF0E02460610F21601701F05EF824
:101E00000020A06107202061002010BD70477047AE
:101E100070B590F83C20012A32D0012480F83C4073
:101E2000022280F83D2003685A689D6822F07006FF
:101E30000A6832435A60134B02689A4214D0B2F1D6
:101E4000804F11D0104B9A420ED0104B9A420BD0BB
:101E50000F4B9A4208D00F4B9A4205D00E4B9A4234
:101E600002D00E4B9A4204D1496825F080031943F1
:101E7000916080F83D40002180F83C10084670BD1C
:101E8000022070BD00000140000400400008004036
:101E9000000C0040000401400040014000180040D8
:101EA00010B5040003D094F83D0010B107E0012004
:101EB00010BD002084F83C00204600F01FF80220EE
:101EC00084F83D00211D206800F060FE012084F8A8
:101ED000460084F83E0084F83F0084F8400084F80F
:101EE000410084F8420084F8430084F8440084F8F8
:101EF000450084F83D00002010BD000008B52449CD
:101F0000026824488A4208D1016841F00201016058
:101F1000006800F00200009008BD1E491E4B091D1C
:101F20009A420ED1086840F4003008600868002228
:101F300000F40030009011461920FFF751FC1920E1
:101F400022E0164B9A420ED1086840F480200860C7
:101F50000868002200F48020009011461A20FFF744
:101F60003FFC1A2010E00E498A42D5D1016841F0A9
:101F7000800101600068002200F08000009011469E
:101F80002C20FFF72DFC2C20BDE80840FFF71ABCE1
:101F90000004004040380240004401400048014035
:101FA000001C004090F83D10012901D0012070472D
:101FB000022180F83D1000681149884214D0B0F128
:101FC000804F11D00F4988420ED00F4988420BD064
:101FD0000E49884208D00E49884205D00D498842F2
:101FE00002D00D49884204D1816801F00701062919
:101FF00003D0016841F0010101600020704700003A
:10200000000001400004004000080040000C0040B7
:1020100000040140004001400018004090F83D10CD
:10202000012901D001207047022180F83D1001688C
:10203000CA6842F00102CA6000681149884214D09F
:10204000B0F1804F11D00F4988420ED00E4988421E
:102050000BD00E49884208D00D49884205D00D4961
:10206000884202D00C49884204D1816801F00701FE
:10207000062903D0016841F001010160002070478A
:10208000000001400004004000080040000C004037
:102090000004014000400140001800400168CA6887
:1020A00022F00102CA6001680A6A41F211131A4261
:1020B00007D10A6A9B101A4203D10A6822F0010272
:1020C0000A60012180F83D100020704770B5044679
:1020D00090F83C000025012817D0012684F83C60C8
:1020E000022084F83D002068826822F0770222F402
:1020F0007F4282600868502838D00DDC20284FD0FD
:1021000005DC90B3102811D14AE0022070BD3028C0
:1021100046D040280AD13BE060282FD070280DD04F
:10212000B0F5805F03D0B0F5005F12D0012584F8D0
:102130003D60002084F83C00284670BDCB68D1E9A2
:102140000121206800F08EFD2068816841F0770150
:1021500009E0CB68D1E90121206800F083FD206807
:10216000816841F480418160E1E719E0CA6849680B
:10217000206800F089FD5021206806E0CA6849689F
:10218000206800F092FD6021206800F075FDCEE728
:10219000CA684968206800F077FD40212068F4E7AC
:1021A000226801461046F0E770472DE9F0410446E9
:1021B0000068C66805694FF00007A90713D5B10785
:1021C00011D5F91E01610120207720688069800700
:1021D000204602D0FFF7E8FF04E000F07EF820463A
:1021E00000F07CF82777680716D5700714D52168AA
:1021F0006FF004000861022020772068806910F4E5
:10220000407F204602D0FFF7CFFF04E000F065F8E2
:10221000204600F063F82777280715D5300713D537
:1022200021686FF008000861042020772068C069E9
:102230008007204602D0FFF7B7FF04E000F04DF81A
:10224000204600F04BF82777E80616D5F00614D59F
:1022500021686FF010000861082020772068C069AD
:1022600010F4407F204602D0FFF79EFF04E000F00C
:1022700034F8204600F032F82777E80708D0F00756
:1022800006D021686FF001000861204600F028F8B0
:10229000280608D5300606D521686FF08000086151
:1022A0002046FFF7B3FD680608D5700606D52168FD
:1022B0006FF040000861204600F0F0F9A8060AD54A
:1022C000B00608D521686FF0200008612046BDE8FF
:1022D000F041FFF79CBDBDE8F081704770470000FA
:1022E0002DE9F04F2DED048B814685B00068A8499B
:1022F000DFF8A0A24FF0000888427FD10AF1140055
:10230000018800EE101AF8EE400A9FEDA30A60EE75
:10231000801ADFEDA20A81EEA01A9FEDA18A408803
:1023200021EE089A01EE100AB8EE411A21EE000AD9
:1023300080EE201A61EE088A38EEC90A10EE100A03
:10234000FDF7BAFF06460F4618EE900AFDF7B4FFF8
:1023500004460D4619EE100AFDF7AEFF8DE8F000B9
:1023600041EC100B8FA053EC102B00F097FDDAF826
:10237000040054460A264FF400634FF47A6B40F28F
:102380008A254FF4FA67062838D2DFE800F0031AEE
:1023900028485587002210218F48FEF709FF0022A8
:1023A00040F2273311468C48FEF702FF8BA000F065
:1023B00075FD9348FFF772FEC4F80C80C4F81080D6
:1023C0001CE01C46002210218348FEF7F1FE00228B
:1023D000234611468048FEF7EBFE8AA00CE000225F
:1023E00010217D48FEF7E4FE002240F6D843114656
:1023F0007948FEF7DDFE8CA000F050FD9349D9F836
:10240000000088426FD19AF8002054464114904849
:10241000002A69D0012A68D0022AF3D1A5E000225F
:1024200010216D48FEF7C4FE00231A4619466A487B
:10243000FEF7BEFE87A0DFE7E06818B97048FFF737
:10244000EDFD2561E068B0FBF6F106FB110058B91F
:10245000E068B84203D8E06800F28A2003E0E1684F
:1024600041F22A20401A2061206900EE100AF8EE9D
:10247000400A80EE880A01F0F9F90346002211466D
:102480005548FEF795FEE068584505D35C48FFF7D0
:1024900005FEC4F80C80256175A0ADE7E06818B9A9
:1024A0005748FFF7BBFD2561E068B0FBF6F106FB7E
:1024B000110050B9E068B842E06802D800F29920F3
:1024C00002E041F23921081A2061E068B0FBF6F120
:1024D00006FB110001280DD1E068B842E06805D87C
:1024E00000F2892005E026E01EE025E041F22B21E4
:1024F000081A2061206900EE100AF8EE400A80EE0A
:10250000880A01F0B3F90346002211463248FEF76B
:102510004FFEE068584505D33948FFF7BFFDC4F8C2
:102520000C80256157A067E7FFF7E4F8012820D168
:102530002070C4F808801CE0A268531CA360322AF3
:1025400017D3FFF7D7F801280CD10220207060685C
:10255000401C606060686178B0FBF1F201FB120022
:10256000606006E084F8008003E0FFF7C3F800280D
:10257000F8D04949D9F80000884204D1DAF80C10A3
:10258000491CCAF80C1005B0BDEC048BBDE8F08FF7
:1025900000440140000000203333534000F07F45E9
:1025A00000007A445265666572456C653A20252EB6
:1025B0003266206D562C20576F726B456C653A2041
:1025C000252E3266206D562C20446966663A2025F9
:1025D0002E3266206D560900D4000020576F726BB2
:1025E0004D6F646520303A20436F6E7374616E7472
:1025F00020566F6C74616765202D31560D0A0000FE
:10260000C0010020576F726B4D6F646520313A2016
:10261000436F6E7374616E7420566F6C746167657E
:102620002030560D0A000000576F726B4D6F6465C5
:1026300020323A20436F6E7374616E7420566F6C53
:10264000746167652031560D0A00000000480140A2
:1026500000080240576F726B4D6F646520333A205B
:102660004F70656E20436972637569740D0A0000CE
:10267000576F726B4D6F646520343A2043560D0AD4
:1026800000000000576F726B4D6F646520353A2073
:10269000445056200D0A0000001C0040704770B5E1
:1026A000040004D094F84100002510B106E0012098
:1026B00070BD84F84050204600F024F8242084F8AF
:1026C00041002068C16821F40051C160204600F03B
:1026D00025FB2068016921F490410161206841696E
:1026E00021F02A0141612068C16841F40051C160B4
:1026F0006564202084F8410084F84200656300206E
:1027000070BD000010B586B0044614216846FDF780
:10271000AFFD13492068884220D112480021026889
:1027200042F400320260006800F4003005900D4869
:102730001038026842F001020260006800F00100F7
:1027400005900C2000900220CDE9010103200390A8
:102750000720049069460448FEF7DEFE06B010BD6F
:102760000044004040380240000002402DE9F84398
:10277000044690F84100984616460D46202802D09F
:102780000220BDE8F88385B17EB10020606421207D
:1027900084F84100FEF7B4FFA6848146E684A06871
:1027A0002027B0F5805F02D003E00120E9E720692F
:1027B00010B12E4600250EE000260CE080212046B8
:1027C00000F032FBA8B9C6B116F8010B21684860C9
:1027D000E08C401EE084E08C4B464FF00002CDF8C8
:1027E00000800028EAD14FF04001204600F01CFB99
:1027F00040B184F841700320C3E735F8020BC0F301
:102800000800E3E784F841700020BAE7FEE7000023
:102810007FB500251A480095019502951749039543
:10282000016001244FF480310461C0E9011505768F
:1028300080F820500903C1620226C6614910C560B4
:10284000816280F830404461FEF79EFA08B1FEF7DD
:102850004CF9CDE90054694609480295FEF748F95C
:1028600008B1FEF742F9CDE9004669460448FEF793
:102870003FF9002801D0FEF738F97FBD0020014064
:102880002C0000201CB50024104900940E4801942F
:1028900008600846FEF747FC08B1FEF726F90094E9
:1028A0000022694609480194FEF716FC08B1FEF7BC
:1028B0001CF9102269460548FEF70EFC002801D0DD
:1028C000FEF713F91CBD000000740040D400002086
:1028D000094808B5016841F48001016000680022E0
:1028E00000F48000009011463820FEF779FFBDE823
:1028F00008403820FEF766BF3038024000B587B088
:1029000014216846FDF7B4FC17480021026842F024
:1029100004020260026802F004020592026842F0BA
:1029200080020260026802F080020592026842F0B2
:1029300001020260026802F001020592026842F0A0
:1029400002020260006800F0020005904FF400509F
:1029500000904FF40410CDE9010169460348FEF7E9
:10296000DBFD07B000BD0000303802400008024027
:102970000B4810B50949016042F2CF0141600021C6
:102980006322C0E9021201618161FFF789FA002820
:1029900003D0BDE81040FEF7A8B810BD00440140C8
:1029A000300100200B4810B50949016040F2473161
:1029B000416000216322C0E9021201618161FFF7D9
:1029C0006FFA002803D0BDE81040FEF78EB810BDA6
:1029D00000480140780100200C4810B50A49016008
:1029E00042F2CF014160002140F2F312C0E902122D
:1029F00001618161FFF754FA002803D0BDE810405F
:102A0000FEF773B810BD0000001C0040C00100209C
:102A100010B586B0002418480094019402940394E1
:102A200004941449059401604AF20F41C0E901146D
:102A30002721C0E9031480218161FFF731FA08B131
:102A4000FEF753F84FF48050009069460A48FFF7AC
:102A50003DFB08B1FEF749F82020CDE9040404A9A4
:102A60000548FFF7D5F9002801D0FEF73EF806B07B
:102A700010BD000000040040E80000200C4810B524
:102A80000A4901604FF4E1314160002181600C226C
:102A9000C160C0E904128161C161FFF700FE002836
:102AA00003D0BDE81040FEF720B810BD0044004040
:102AB00008020020FEE7FEE770477047FEF726BEDB
:102AC00030B593B034216846FDF7D2FB14210DA830
:102AD000FDF7CEFB1E480025016841F080510160E2
:102AE000006800F0805012901A48016821F44041BB
:102AF00041F4804101600068022400F440401290DB
:102B0000012003901020009406940490CDE9075012
:102B10004FF4A87009900420CDE90A0468460C948B
:102B2000FEF794FF08B172B6FEE70DA90F2081E809
:102B300031004FF48050CDE9100502210DA8FEF7B9
:102B400081FE002801D072B6FEE713B030BD000050
:102B500040380240007000400248016841F47001B2
:102B60000160704788ED00E00148FFF71EBB0000E0
:102B7000780100200148FFF718BB00003001002059
:102B80000148FFF712BB0000C0010020F0B5026849
:102B9000294C2A4D2A4E2B4F2B4B4FF0804CA042F4
:102BA00009D0604507D0A84205D0B04203D0B84252
:102BB00001D0984204D122F0700E4A6842EA0E0217
:102BC000A0421BD0604519D0A84217D0B04215D002
:102BD000B84213D0984211D01C4DA8420ED01C4DC3
:102BE000A8420BD01B4DA84208D01B4DA84205D0CF
:102BF0001A4DA84202D01A4DA84203D122F44075C2
:102C0000CA682A434D6922F080022A4302608A681A
:102C1000C2620A688262A04201D0984201D1096969
:102C20000163012141610169C90703D0016921F0F4
:102C300001010161F0BD00000000014000040040FE
:102C400000080040000C004000040140004001402A
:102C5000004401400048014000180040001C0040B2
:102C60000020004010B5846842EA032224F47F4427
:102C70000A432243826010BD826822F070020A4338
:102C800042F007018160704710B5036A046A24F0BE
:102C900001040462846924F0F00444EA021423F07D
:102CA0000A020A438461026210BD10B5036A046A15
:102CB00024F010040462846923F0A00324F4704417
:102CC00044EA023243EA01118261016210BD0168E7
:102CD0000C3151E8002F22F4907241E80023002BC0
:102CE000F5D10168143151E8002F22F0010241E8CA
:102CF0000023002BF5D1016B012909D101680C31AA
:102D000051E8002F22F0100241E80023002BF5D1FA
:102D1000202180F8421000210163704770B50446FD
:102D200000680169E26821F44051114301612169A1
:102D3000A068E26908436169114308432168CA68D1
:102D400049F20C639A430243CA6020684169A26950
:102D500021F440711143416131492068884202D019
:102D60003049884202D1FEF717FE01E0FEF704FE6B
:102D7000E2690023192164253226B2F5004F62680A
:102D800028D0A0FB0101930F9200FDF739FA01460C
:102D9000B0FBF5F06FF01802504301EB800006EB3A
:102DA0000010B0FBF5F000F0F002B1FBF5F002EB23
:102DB0000012B1FBF5F06FF01803584301EB8000EF
:102DC00006EB0010B0FBF5F000F00F002168104496
:102DD000886070BDA0FB010192185B41FDF710FAFD
:102DE0000146B0FBF5F00201B1FBF5F06FF01803FE
:102DF000584301EB800006EBC000B0FBF5F000F09B
:102E0000F80002EB4002B1FBF5F0584301EB800003
:102E100006EBC000B0FBF5F000F00700D6E70000BD
:102E200000100140001401402DE9F8439846174670
:102E30000D460446089E24E0701C22D0FEF760FC7C
:102E4000A0EB0800B0421AD8CEB12068C16849078B
:102E500017D5802D15D0402D13D00168C94309071F
:102E60000FD401680025406800902046FFF72FFF2F
:102E70000820606484F840500120BDE8F8830320F6
:102E8000FBE72068006835EA000004D00020B84263
:102E9000D2D00020F1E70120F9E7FEE70FB4054B9F
:102EA00010B503A9044A029800F05CF910BC5DF863
:102EB00014FB0000B1380008280000200907090EA3
:102EC000002804DB00F1E02080F80014704700F0D7
:102ED0000F0000F1E02080F8141D70470000000092
:102EE00010B52DED020B2DED088B84B09DED0C0B74
:102EF00051EC100BFDF7B0FB41EC180B9DED0C0BEA
:102F000053EC182B51EC100BFDF7BFFA41EC190BE9
:102F10000D989FED290B10F0004F53EC102B51EC46
:102F2000190B9FED21AB9FED22BB0ED0FDF7F0FBFF
:102F30000ED953EC1B2B51EC190BFDF701FC1CD2E5
:102F400014E000BF41EC180B17E0FDF7E1FB06D2DF
:102F500053EC1A2B51EC180BFDF797FAF2E753ECF0
:102F60001B2B51EC190BFDF7EBFB06D853EC1A2B7E
:102F700051EC180BFDF7E8F9E4E78DED028B9DEDC0
:102F80000C0B18EE901A10EE900A8DED000B61F309
:102F90001E0003909DED020B04B0BDEC088B02B047
:102FA00010BD000000000000000000000000F03F25
:102FB000000000000000E03F000000000000E0BF53
:102FC00002E008C8121F08C1002AFAD170477047F2
:102FD000002001E001C1121F002AFBD17047000050
:102FE0002DE9FF5F82B00021DDE90430020DDDF83C
:102FF00040B0034318D044F61050A2F2FF324243CF
:103000001514119801281FD0A5EB0B00401C5FEA96
:10301000000A4FF000064E4FDFF83891B046504698
:1030200015D5CAF1000413E0119801244AA3012820
:1030300001D16FEA0B010298119AC0E90031C0E991
:10304000024206B0BDE8F09FCBF10000DFE7044686
:103050000021404A491842EB0450CDE9001012E02B
:10306000E00707D032463B4640464946FDF713FA93
:103070008046894632463B4610461946FDF70BFA14
:1030800006460F466410002CEAD1DDE90401DDE9B3
:103090000023BAF1000F06DAFDF7FDF942464B4670
:1030A000FDF7F9F905E0FDF768FA42464B46FDF7F2
:1030B00064FA04460E460022284BFDF741FB03D874
:1030C0004FF0FF30014607E00022254B20463146F5
:1030D000FDF73AF9FDF704FB102409E0002C0ADBA8
:1030E0000A220023FDF78CF8039B30321A55641E28
:1030F00050EA0102F2D1641C039AC4F11103144492
:10310000119A012A03D0012208430DD10AE0084395
:1031100004D000204FF0110B119072E7A3EB0B05C8
:103120006D1E0DE05B4504DD4FF0000205F1010569
:1031300004E003DA4FF00002A5F10105002AECD00B
:1031400002981199C0E90231C0E9004579E7000011
:10315000000014400000F03F300000000000F04389
:103160000000E03F2DE9FF4F95B09A46884606469D
:103170000025EEE1252877D100242746F94A0121D0
:10318000039400E0044316F8013F203B01FA03F0EA
:103190001042F7D130782A2811D06FF02F03307801
:1031A000A0F13002092A16D8039A44F0020402EB77
:1031B000820203EB42021044761C0390EFE758F8BA
:1031C000042B0392002A03DA504244F40054039083
:1031D00044F00204761C30782E2816D116F8010F20
:1031E00044F004042A280DD06FF02F023078A0F1AB
:1031F0003003092B09D807EB870302EB4303C718F9
:10320000761CF3E758F8047B761C30786C280FD0D6
:1032100006DC4C2817D068280DD06A2814D104E0A9
:10322000742810D07A280FD10DE044F400140AE07D
:1032300044F4801401E044F440147278824202D1D4
:1032400004F58014761C761C307866280BD013DCCD
:10325000582877D009DC002875D04528F6D04628B4
:10326000F4D047281AD193E118E0632835D06428B8
:1032700079D0652812D18BE1702873D008DC6728DB
:10328000F1D069286FD06E280DD06F2806D1ACE040
:1032900073282CD0752874D0782853D052461799AB
:1032A00090476D1C54E1C4F30250022809D0032852
:1032B0000DD0D8F8001004280DD00D6008F10408D6
:1032C00046E1D8F80010EA17C1E90052F6E7D8F84D
:1032D00000100D80F2E70D70F0E718F8041B8DF870
:1032E000001000208DF80100EB46012003E058F8A3
:1032F00004BB4FF0FF3061074FF0000102D40DE036
:1033000009F101018946B9420FDA8145F8DB1BF862
:1033100009100029F4D108E009F101018946814230
:10332000FADB1BF809100029F6D103985346A0EBED
:10333000090721463846179A00F080FA284400EB26
:10334000090507E044E008E10DE01BF8010B5246D7
:1033500017999047B9F10109F7D2534621463846EB
:10336000179AF2E039E00A21C4F302524FF0000B41
:103370000091022A06D058F8040BC117032A09D07D
:103380000AE023E008F1070020F00702F2E802015A
:10339000904605E000B2C117042A01D140B2C1171E
:1033A000002906DA0A460021404261EB02012D2283
:1033B00002E0220504D52B228DF80420012203E02F
:1033C000E20701D02022F7E7914657E00A2100E00A
:1033D00010214FF0000B00910BE010214FF0000B7B
:1033E00044F004040827009103E008204FF0000B8C
:1033F0000090C4F30252022A05D058F8040B0021B1
:10340000032A08D008E008F1070020F00702F2E8DC
:103410000201904603E080B2042A00D1C0B24FF00E
:10342000000922072AD53278702A07D0DDF800C0BB
:103430008CF0100C5CEA0B0C05D00EE040228DF8ED
:103440000420012208E050EA010306D030238DF861
:1034500004308DF8052002229146009B83F008037A
:1034600053EA0B030AD150EA010201D1620705D5E4
:1034700030228DF804204FF001097F1E3278582A3F
:1034800004D039A20C920CAA02920BE03BA2F9E7FD
:103490005B46009AFCF7B4FE0C9B9B5C029A521EA2
:1034A0000292137050EA0102F2D1029804A9081A9C
:1034B00000F1200B600702D524F4803400E00127DE
:1034C0005F4502DDA7EB0B0000E0002000EB0B01E5
:1034D000009003984944401A0390E00306D45346F1
:1034E0002146179A039800F0A9F90544002706E041
:1034F00001A85246C05D179990476D1C7F1C4F452F
:10350000F6DBE0030CD553462146179A039800F0EA
:1035100095F9054404E030205246179990476D1CF8
:103520000099481E00900029F5DC08E002980299F5
:1035300052460078491C0291179990476D1CBBF1C7
:103540000001ABF1010BF1DC5BE100F065F9054432
:10355000761C307800287FF40DAE19B02846BDE8FF
:10356000F08F00000928010030313233343536370E
:1035700038396162636465660000000030313233BF
:10358000343536373839414243444546000000005F
:10359000600700D4062708F1070020F00700F0E8D4
:1035A0000223804603F0004C5FEA0C0001D097A094
:1035B00009E0200501D596A005E0E00701D095A01F
:1035C00001E0AFF24C001390307823F000436528FF
:1035D0000CD006DC452809D046281DD047287FD1CD
:1035E0003BE0662818D067287AD136E00021112FF9
:1035F00001DB112000E0781CCDE9000104A90CA832
:10360000FFF7EEFCDDE90D010C9A4FF0000B07F11E
:103610000109109200914EE04FF000400097CDE973
:10362000011004A90CA8FFF7DBFCDDE90D020C9BDF
:103630000F994FF0000B91461093009211B9791C2D
:1036400000EB0109B7EB090003D4C0F1FF3B07F120
:103650000109A9EB0700019042E0012F00DA0127E0
:103660000021112F01DD112000E03846CDE90001D5
:1036700004A90CA8FFF7B4FCDDE90D010C9A009138
:103680004FF0000BB946109221070FD4009A4A451B
:1036900003DA914601E0A9F10109B9F1010F05DD55
:1036A000109AA9F10101515C3029F4D0B84202DA34
:1036B00010F1040F03DA0121CDE9011010E0002818
:1036C00003DC8344A9EB000102E0411C494500DD15
:1036D0008946A0EB0B00401C01904FF00040029087
:1036E000200705D40198484502DB4FF0FF300190D8
:1036F00000208DF84B0002980DF14B07B0F1004F00
:1037000025D002200C902B200D90029800280CDA76
:10371000404202902D200D9007E00A210298FCF70C
:10372000DEFD3031029007F8011D0C99481E0C9007
:103730000029F2DC02980028EFD1791E0D9808705C
:10374000307800F0200040F0450007F8020D11A885
:10375000C01BC01D02901398007800B1012000EB3F
:103760000901019801EBE071029801440398401AA5
:10377000401E0390E00306D453462146179A03984F
:1037800000F05CF805441398007818B15246179978
:1037900090476D1CE00323D553462146179A0398A2
:1037A00000F04CF805441BE0BBF1000F07DB00986C
:1037B000584504DD1098179910F80B0001E017998F
:1037C00030205246904701980BF1010B401E05F145
:1037D0000105019004D12E205246179990476D1C87
:1037E000B9F10001A9F10109DEDC05E017F8010BD0
:1037F0005246179990476D1C0299481E0290002965
:10380000F4DC53462146179A03989EE62D000000EB
:103810002B000000200000002DE9F04104460025A7
:103820001E461746880404D405E039462020B047D8
:103830006D1C641EF9D52846BDE8F0812DE9F041E4
:10384000044600251E469046C80301D5302700E0F7
:103850002027880404D505E041463846B0476D1C52
:10386000641EF9D52846BDE8F0810000DFED0E0AA0
:1038700070B580EE201A9FED0D0A4FF480556C1E36
:1038800021EE000A10EE100AFCF716FD41EC100BB9
:10389000FFF726FB51EC100BFCF7F5FC80B2A842B9
:1038A00000D3204670BD00003333534000F07F4505
:1038B00013B54FF6FF73012269460248FEF756FF23
:1038C00000981CBD08020020FDF728FFFFF7F8F85C
:1038D000FFF714F8FEF7FCFFFEF79AFFFEF7D2FFA2
:1038E000FFF7CCF8FFF744F8FFF75CF8FFF774F840
:1038F000FFF78EF810211548FDF76BFC4FF40064BC
:103900002346002210211148FDF752FC00210F48E8
:10391000FDF75FFC0022234611460C48FDF748FCEA
:103920000B48FDF7B1FA0B48FEF73CFB0A48FEF7DF
:1039300075FB0A48FEF772FB0948FEF7AFFB02224F
:1039400008490348FDF71EFBFEE70000D4000020F5
:103950002C000020E8000020300100207801002029
:10396000C0010020140000200006101600061016EA
:10397000000000000000000001020304060708091F
:103980000000000001020304A83900080000002024
:103990002C000000C02F0008D43900082C000020A3
:1039A00024060000D02F00080006000000000000E0
:1039B0000000000000000000000000000000000007
:1039C0000100000010000000000000000024F400CE
:0439D00000000000F3
:04000005080001C529
:00000001FF
