:020000040800F2
:10000000A8050020DD010008231E0008211C0008AF
:10001000211E0008810700089F2100080000000041
:10002000000000000000000000000000271E000883
:100030008307000800000000251E0008291E000894
:10004000F7010008F7010008F7010008F7010008B0
:10005000F7010008F7010008F7010008F7010008A0
:10006000F7010008F7010008F7010008F701000890
:10007000F7010008F7010008F7010008F701000880
:10008000F7010008F7010008F7010008F701000870
:10009000F7010008F7010008F7010008F701000860
:1000A000F7010008E11E0008D51E0008F70100084E
:1000B000F7010008F7010008F7010008F701000840
:1000C000F7010008F7010008F7010008F701000830
:1000D000F7010008F7010008F7010008F701000820
:1000E000F7010008F7010008F7010008F701000810
:1000F000ED1E0008F7010008F7010008F7010008ED
:10010000F7010008F7010008F7010008F7010008EF
:10011000F7010008F7010008F7010008F7010008DF
:10012000F7010008F7010008F7010008F7010008CF
:10013000F70100080000000000000000F7010008BF
:10014000F7010008F7010008F7010008F7010008AF
:10015000F7010008F7010008F7010008F70100089F
:10016000F7010008F7010008F7010008F70100088F
:10017000F7010008F7010008F7010008000000007F
:1001800000000000F701000800000000000000006F
:10019000F70100080000000000000000F70100085F
:1001A000000000000000000000000000F70100084F
:1001B000F7010008F7010008F7010008F70100083F
:1001C000F7010008DFF810D000F0C4F9004800473C
:1001D0004D230008AFF30080A805002006488047A3
:1001E00006480047FEE7FEE7FEE7FEE7FEE7FEE71C
:1001F000FEE7FEE7FEE7FEE7C51E0008C5010008B2
:100200002DE9F05F0546002092469B46884606464B
:10021000814640241BE0284641464746224600F0DE
:100220006DF853465A46C01A914110D311461846EC
:10023000224600F054F82D1A67EB01084F4622467B
:100240000120002100F04BF817EB00094E41201E61
:10025000A4F10104DFDC484631462A464346BDE8A6
:10026000F09FD2B201E000F8012B491EFBD270478B
:100270000022F6E710B513460A4604461946FFF772
:10028000F0FF204610BDC1F30A5210B5C1F31301AF
:1002900040F2FF3341F480119A4201DA002010BD90
:1002A00040F233439A42A2F2334203DC524200F05E
:1002B00025F810BD904010BD00F0004230F0004025
:1002C0000AD0C10D01F56071C0F3160042EA015178
:1002D000C208400711437047002001467047202A9A
:1002E00004DB203A00FA02F1002070479140C2F18D
:1002F000200320FA03F3194390407047202A04DBBF
:10030000203A21FA02F00021704721FA02F3D0408E
:10031000C2F1200291400843194670472DE9FE4F73
:10032000804681EA0300C00F0C46009021F0004196
:1003300023F00045B8EB0200A94105D24046214612
:1003400090461C460B46024623F00040104347D01F
:10035000270DC7F30A00C3F30A510290401A019017
:1003600040286BDAC3F3130040F4801B00989246D8
:1003700020B10023D2EB030A63EB0B0B0198594623
:10038000C0F140025046FFF7AAFF06460D46504610
:100390005946019A00F0F0F810EB08006141002482
:1003A00087EA115284EAE7731A4340D0009A62B395
:1003B000019A012A4FEA075215DC001B61EB02018A
:1003C0004FF0004202EA0752CDE90042001C41F51D
:1003D000801132462B4600F0F0F803B0BDE8F08FF4
:1003E00040462146F9E7001B61EB0201001C41F584
:1003F000801300185B412018A2F5001747EB03019A
:1004000040EAD570B6196D4111E06D084FEA360625
:1004100045EAC0754FEA0752001B61EB0201001C60
:1004200041F5801149084FEA300000195141324628
:100430002B4603B0BDE8F04F00F0B0B800980122A1
:1004400040000023D0EB020263EBE07300982146EA
:100450004FEAE074B8EB000061EB0401E9E783F0D8
:1004600000435BE781F0004158E700002DE9F041CF
:10047000054621F000400C46284309D0C4F30A5039
:1004800040F23341884205DD28462146BDE8F0812F
:100490002846FBE740F2FE31884210DC0CDB4FEAD5
:1004A000043040EA155050EA053105D0104804F0F8
:1004B000004101430020E9E700200146E6E7A0F201
:1004C00033404642C6F1400228462146FFF707FF67
:1004D00007468846284621463246FFF70FFF434627
:1004E0003A4600F05BF83246BDE8F041FFF7F7BE50
:1004F0000000F03F30B5041E71F1000404DB4FF042
:100500000044404264EB0101141E73F1000405DB5A
:100510001C464FF00043524263EB04038B4208BF7A
:10052000824230BD30B5041E71F1000404DB4FF08F
:100530000044404264EB0101141E73F1000405DB2A
:100540001C464FF00043524263EB0403994208BF3C
:10055000904230BD064C074D06E0E06840F00103D4
:1005600094E8070098471034AC42F6D3FFF72EFE0C
:10057000E423000804240008202A06DBCB17203AD5
:1005800041FA02F043EAE07306E041FA02F3D04098
:10059000C2F12002914008431946704710B5141E5D
:1005A00073F1000408DA401C41F1000192185B412C
:1005B0001A4301D120F0010010BD2DE9F04D924603
:1005C0009B4611B1B1FA81F202E0B0FA80F220321A
:1005D0009046FFF784FE04460F4640EA0A0041EACF
:1005E0000B0153465A46084313D0114653EA010003
:1005F00019D0C8F140025046FFF780FE05460E466E
:10060000504659464246FFF76AFE084305D001208E
:1006100004E020463946BDE8F08D0020054346EA57
:10062000E0762C4337430A986305E40AA0EB080000
:100630000022FD0A44EA47540A3002D50020014650
:10064000E9E7010510196941DDE90845001969412B
:10065000BDE8F04DA2E70000464910B54A6822F413
:1006600040324A604A6843681A434A6001684A68EF
:1006700022F480724A6001684A68036942EA0322F0
:100680004A6001684A6822F040724A6001684A681C
:1006900083681A434A6001688A6822F400628A60AB
:1006A00001688A68C3681A438A60816A6FF0706261
:1006B000D14201688A6822F070628A6001688A68A3
:1006C0000CD0836A1A438A6001688A6822F040521B
:1006D0008A6001688A68C36A1A4301E022F04052C6
:1006E0008A6001688A6822F002028A6001688A686A
:1006F000037E42EA43028A6090F8201000290168D4
:100700004A680FD042F400624A6001684A6822F4E5
:1007100060424A6001684A68174C436A04EB4333FD
:100720001A4301E022F400624A600168CA6A22F4B6
:100730007002CA620168CA6A838B104C04EB0353CF
:100740001A43CA6201688A6822F400728A600168EA
:100750008A6890F8303042EA43228A6001688A68E9
:1007600022F480628A6001688A68406942EA8020D7
:10077000886010BD0023014000E0FFFF0000F0FF93
:10078000FEE7704772B6FEE778B50024009490F853
:100790003C20012A19D0012280F83C200A68072356
:1007A0000568092A13D9EE680A3A02EB420293401F
:1007B0009E43EE600B788A680A3B03EB43039A4042
:1007C0000368DD682A43DA6010E0022078BD2E69F4
:1007D00002EB420293409E432E610B788A6803EB42
:1007E00043039A4003681D692A431A614A681F231C
:1007F000072A13D205686E6B521E02EB82029340E9
:100800009E436E630A8893B20A79521E02EB8202FB
:1008100093400268556B2B43536327E005680D2A0C
:1008200012D22E6BD21F02EB820293409E432E63A4
:100830000B790A88DB1F92B203EB83039A400368AB
:100840001D6B2A431A6311E0EE6A0D3A02EB820235
:1008500093409E43EE620B790A880D3B92B203EB04
:1008600083039A400368DD6A2A43DA621B4B0568FA
:10087000194A9D420AD10D68122D07D1556825F4F9
:1008800000055560556845F48005556005689D4232
:100890001DD1134D0B68AB4201D0112B17D15368FA
:1008A00023F480035360536843F4000353600968E2
:1008B000A9420CD10B490C4A0968B1FBF2F101EBDA
:1008C0008101490000E0491E00910029FBD180F818
:1008D0003C40002078BD0000002301400020014082
:1008E000120000102000002040420F0070B50400EC
:1008F0004FF0000503D0206C002610B107E0012066
:1009000070BD204600F01CF8666484F83C60206CE2
:10091000C00610D4206C20F4885040F002002064FF
:100920002046FFF799FE6664206C20F0020040F03C
:100930000100206400E0012584F83C60284670BD79
:1009400010B586B0044614216846FFF791FC1149A2
:10095000206888421CD110480021026842F480724D
:100960000260006800F4807005900B48143802683B
:1009700042F001020260006800F0010005900120D1
:1009800000900320CDE901016946044800F034F9E4
:1009900006B010BD00200140443802400000024073
:1009A00018B50021009190F83C20012A07D00122BF
:1009B00080F83C2002689368DB0702D011E0022037
:1009C00018BD936843F0010393602E4A2E4B1268C2
:1009D000B2FBF3F202EB420200E0521E0092002A48
:1009E000FBD102689368DB0742D0036C40F20164DC
:1009F000A34343F48073036453685B0505D5036C1C
:100A000023F4005343F480530364036CDB0404D5E4
:100A1000436C23F00603436400E0416480F83C101B
:100A20001A496FF02203136049680068CA06184922
:100A300006D0884224D1816811F0405F13D01FE0B6
:100A40008842F8D0134A904203D1D1F80423D20649
:100A5000F1D0114A904213D1D1F8041301F01F01D3
:100A60001029E8D30CE0816841F08041816007E003
:100A7000016C41F010010164416C41F001014164DD
:100A8000002018BD2000002040420F00002301403C
:100A900000200140002101400022014070B500B358
:100AA000F9B14379012B1ED001264671022303714F
:100AB00005682C6802F0100340F6FE729A409443D9
:100AC000D1E900210A439A4022432A6001680A685A
:100AD000C0249C40A2430A6006710021417108466F
:100AE00070BD012070BD022070BD70B5040003D040
:100AF0002079002510B105E0012070BD6571204608
:100B000000F008F8022020712561012020710020EA
:100B100070BD000010B586B0044614216846FFF78A
:100B2000A7FB1149206888421CD1104800210268A7
:100B300042F000520260006800F0005005900B483F
:100B40001038026842F001020260006800F0010003
:100B50000590302000900320CDE90101694604484A
:100B600000F04AF806B010BD007400404038024062
:100B70000000024018B50024009440B100680090C5
:100B8000104431B1143000900360002018BD0120E2
:100B900018BD0830F7E770B508B34279012A20D0B4
:100BA00001224271022303710468266801F01003D8
:100BB00002FA03F52E4326600029016813D00C6861
:100BC00004F470153C249C40A54203D14B6843F0CB
:100BD00002034B60027100214171084670BD012083
:100BE00070BD022070BD0B68C3F383030F2BF1D1DE
:100BF0004B6843F00103ECE72DE9F84FDFF8ACA1B7
:100C00000022012403254FF00F090AF1040BAAF179
:100C1000040E00BF0B6804FA02F63340B3426ED1F3
:100C20000F7907F00307012F01D0022F16D1876833
:100C30004FEA420805FA08FC27EA0C07D1F80CC075
:100C40000CFA08FC4CEA070CC0F808C04768B74328
:100C50000E79C6F3001696403E4346600E79F64381
:100C6000B6070AD0C6684FEA420C05FA0CF7BE4335
:100C70008F6807FA0CF73743C7600E7906F0030652
:100C8000022E10D1D60800EB8608D8F8206057074E
:100C90004FEAD76C09FA0CF7BE430F6907FA0CF755
:100CA0003743C8F8207006684FEA420C05FA0CF783
:100CB000BE430F7907F0030707FA0CF737430760C5
:100CC0004E6816F4403F6BD0394E376847F4804782
:100CD0003760366822F0030706F480460096354EEA
:100CE00007EB060CDCF8086897074FEA177809FA53
:100CF00008F7BE43304FB84202D100271FE04FE053
:100D00002E4FB84201D1012719E02D4FB84201D131
:100D1000022714E02B4FB84201D103270FE02A4FDE
:100D2000B84201D104270AE0284FB84201D1052773
:100D300005E0274FB84201D1062700E0072707FA50
:100D400008F73743CCF80878DAF800605746D1F84E
:100D500004C09E435FEACC2C00D51E433E60DBF806
:100D600000605F46D1F804C09E435FEA8C2C00D53A
:100D70001E433E60DEF800607746D1F804C09E4313
:100D80005FEA8C3C00D51E433E60084F083F3E683A
:100D9000D1F804C09E435FEACC3C00D51E433E60C0
:100DA000521C102AFFF436AFBDE8F88F083C014012
:100DB000443802400030014000000240000402407C
:100DC00000080240000C02400010024000140240E3
:100DD000001802400069084000D001207047000060
:100DE00001488068704700001400002002488168B4
:100DF0000278114481607047140000200B4810B540
:100E0000016841F400710160016841F48061016092
:100E1000016841F480710160032000F071F8002046
:100E200000F006F800F024F8002010BD003C02405D
:100E300070B50D4D04464FF47A712878B1FBF0F08F
:100E40000A490968B1FBF0F000F03CFB48B9102CEE
:100E500007D200222146501E00F032F800206C60BC
:100E600070BD012070BD0000140000202000002093
:100E70000B4882B0016841F480410160006800F4D1
:100E8000804000900648001F016841F080510160D9
:100E9000006800F080500090072002B000F030B8E9
:100EA00044380240002809DB00F01F020121914074
:100EB0004009800000F1E020C0F8001170470000F8
:100EC000F0B40E4B1B680C46C3F30223C3F10705B5
:100ED000042D00D90425191D072901D2002300E0A3
:100EE000DB1E012606FA05F1491E214099409E406D
:100EF000761E16403143F0BC01F05AB90CED00E00B
:100F0000064900F0070208684FF6FF03184040EA60
:100F10000220034A10430860704700000CED00E017
:100F20000000FA052DE9F0470E46050065D0DFF810
:100F30001481D8F80000F7B200F00F00B04207D2D9
:100F400088F80070D8F8000000F00F00B04254D1CB
:100F500028683D4C810712D5400703D5206840F42E
:100F6000E05020602878000703D5206840F46040F6
:100F700020602068A96820F0F000084320602878ED
:100F8000C0072DD0304968680839012812D00228DE
:100F900013D0032811D00968890700292DDA2168A8
:100FA00021F0030101432160FFF71AFF814641F25E
:100FB000883A0EE009688903EFE709688901ECE7E0
:100FC000FFF70EFFA0EB0901514502D90320BDE850
:100FD000F0872068696800F00C00B0EB810FEFD15A
:100FE000D8F80010404601F00F01B14207D9077050
:100FF000006800F00F00B04201D00120E7E7287838
:10100000400705D52068E96820F4E05008432060D7
:101010002878000706D52068296920F4604040EA56
:10102000C100206000F038F82168084AC1F30311BC
:10103000515CC8400649086006480068FFF7F8FEA2
:101040000020C4E7003C024008380240CC230008DE
:1010500020000020180000200448054900680968A5
:10106000044AC1F38221515CC8407047200000202F
:1010700008380240DC230008044805490068096874
:10108000044AC1F34231515CC8407047200000203F
:1010900008380240DC230008224810B5006810F030
:1010A0000C02214815D04110042A11D01D4C241FD8
:1010B000082A0FD00C2A0CD12268236802F03F02C4
:1010C0005B0221D52068C0F38810A0FB010120E05D
:1010D000084610BD2268236802F03F025B0205D576
:1010E0002068C0F38810A0FB010104E02168C1F36F
:1010F0008811A1FB00010023FFF782F82168C1F3EA
:101100000141491C49000AE02168C1F38811A1FB93
:1011100000010023FFF774F82168C1F30271B0FBEE
:10112000F1F010BD083802400024F4002DE9F84F1A
:1011300004007DD0DFF878B32078ABF10407C00756
:10114000A7F1040550D0DBF800105846C1F3810127
:1011500001290FD00168C1F38101022902D1396848
:10116000490207D40068C0F38100032809D1386818
:10117000400206D52868800336D560680028D8D09C
:1011800032E06068B0F5803F10D0B0F5A02F28683D
:1011900010D020F480302860286820F48020286057
:1011A0006068A0B1FFF71CFE06460CE0286840F41A
:1011B0008030F4E740F480202860F7E7FFF710FE66
:1011C000801B642876D828688003F7D50CE0FFF7E9
:1011D00007FE064605E000BFFFF702FE801B6428FD
:1011E000F0D828688003F7D42078DFF8C892800709
:1011F0004FF0000A44D5DBF80010584611F00C0FF0
:101200000FD00168C1F38101022902D13968490276
:1012100007D50068C0F3810003280AD1386840026E
:1012200007D42868800715D5E068012800D111E0AF
:101230003AE1E068B0B10120C9F80000FFF7D0FD45
:10124000064604E0FFF7CCFD801B0228BAD82868C8
:101250008007F7D52868216920F0F80040EAC1002E
:1012600028600DE0C9F800A0FFF7BAFD064604E0CB
:10127000FFF7B6FD801B02281CD828688007F7D42A
:101280002078000727D5DFF828828B48616908F1AC
:101290006C0881B101210160FFF7A2FD064604E060
:1012A000FFF79EFD801B022804D8D8F800008007B5
:1012B000F6D510E089E0C0F800A0FFF791FD0646E2
:1012C00005E000BFFFF78CFD801B02287DD8D8F811
:1012D00000008007F6D42078400769D574484FF0A5
:1012E000000838300068C0000BD4714838300168FD
:1012F00041F08051016000684FF0010800F080501B
:1013000000906E4E3068C00511D4306840F4807093
:101310003060FFF765FD009006E000BFFFF760FD5D
:101320000099401A022850D83068C005F6D5604EA2
:10133000A068683601280FD00528306810D020F04A
:1013400001003060306820F004003060A068B8B15F
:10135000FFF746FD00900FE0306840F00100F4E731
:1013600040F004003060F7E7FFF73AFD0099411ABA
:1013700041F28830814264D830688007F4D50EE0AD
:10138000FFF72EFD009007E0FFF72AFD0099411AB4
:1013900041F28830814254D830688007F4D4B8F1E3
:1013A000000F05D042483830016821F080510160BB
:1013B000A069A8B3DBF80010C1F38101022947D06E
:1013C0000228C9F860A005D000E03AE0FFF708FD68
:1013D000044639E0FFF704FD064604E0FFF700FD90
:1013E000801B02282DD828688001F7D4F4E9070172
:1013F0000843E168324A490802EB0141A26841EA28
:1014000082110843217C40EA0160217D40EA01709D
:1014100038600120C9F86000FFF7E2FC044606E0EE
:1014200044E000BFFFF7DCFC001B022809D8286855
:101430008001F7D53AE000BFFFF7D2FC001B02287D
:1014400002D90320BDE8F88F28688001F4D42DE08C
:101450000128F7D03868E26900F48001914223D175
:10146000226A00F03F0191421ED147F6C071626AC4
:101470000140B1EB821F17D1A26A4FF0FF3300F495
:10148000403103EB5202B1EB024F0DD194F82C2006
:1014900000F07061B1EB026F06D194F8301000F0EB
:1014A000E040B0EB017F01D00120CBE70020C9E78D
:1014B0000838024000004742800E4742007000405A
:1014C0000000FFFF10B5401EB0F1807F01D3012066
:1014D00010BD4FF0E02460610F21601700F068FE3E
:1014E0000020A06107202061002010BD70477047D8
:1014F00010B5040003D094F83D0010B107E00120BE
:1015000010BD002084F83C00204600F01FF80220A7
:1015100084F83D00211D206800F0EEFC012084F8D5
:10152000460084F83E0084F83F0084F8400084F8C8
:10153000410084F8420084F8430084F8440084F8B1
:10154000450084F83D00002010BD000008B51F4A8A
:1015500001681F4891420ED1016841F400310160D9
:101560000068002200F40030009011461920FFF7B7
:10157000A7FC192024E0174A91420ED1016841F4DA
:10158000802101600068002200F480200090114654
:101590001A20FFF795FC1A2012E00F48814213D160
:1015A0000B48001F016841F08001016000680022C3
:1015B00000F08000009011462C20FFF781FC2C20C9
:1015C000BDE80840FFF76EBC08BD000000440140C4
:1015D0004438024000480140001C004090F83D1093
:1015E000012901D001207047022180F83D100168D7
:1015F000CA6842F00102CA6000681149884214D0EA
:10160000B0F1804F11D00F4988420ED00E49884268
:101610000BD00E49884208D00D49884205D00D49AB
:10162000884202D00C49884204D1816801F0070148
:10163000062903D0016841F00101016000207047D4
:10164000000001400004004000080040000C004081
:101650000004014000400140001800400168CA68D1
:1016600022F00102CA6001680A6A41F211131A42AB
:1016700007D10A6A9B101A4203D10A6822F00102BC
:101680000A60012180F83D100020704770472DE965
:10169000F04104460068C66805694FF00007A907D5
:1016A00013D5B10711D5F91E0161012020772068FB
:1016B00080698007204602D0FFF7E8FF04E000F0D1
:1016C0007EF8204600F07CF82777680716D570076B
:1016D00014D521686FF0040008610220207720688B
:1016E000806910F4407F204602D0FFF7CFFF04E06E
:1016F00000F065F8204600F063F82777280715D535
:10170000300713D521686FF00800086104202077A6
:101710002068C0698007204602D0FFF7B7FF04E0C9
:1017200000F04DF8204600F04BF82777E80616D574
:10173000F00614D521686FF01000086108202077AA
:101740002068C06910F4407F204602D0FFF79EFF5A
:1017500004E000F034F8204600F032F82777E8077C
:1017600008D0F00706D021686FF00100086120461C
:1017700000F028F8280608D5300606D521686FF055
:10178000800008612046FFF7B1FE680608D57006A4
:1017900006D521686FF040000861204600F088F906
:1017A000A8060AD5B00608D521686FF020000861A8
:1017B0002046BDE8F041FFF79ABEBDE8F0817047D2
:1017C000704700002DE9F04706462DED028B0025FD
:1017D00000688349834C884226D16068CB149FED12
:1017E000828A4FF47A6A40F28A274FF00A094FF44E
:1017F000FA68062818D2DFE800F003182634417191
:10180000002210217948FFF7B5F9002240F2273372
:1018100011467648FFF7AEF975A000F0C1FC7D488F
:10182000FFF71CFFE56025619CE09846002210212F
:101830006E48FFF79FF90022434611466B48FFF7B9
:1018400099F975A08CE0002210216848FFF792F901
:10185000002240F6D84311466448FFF78BF977A081
:101860007EE0002210216148FFF784F900231A4628
:1018700019465E48FFF77EF979A071E0E06818B973
:101880006448FFF7ABFE2761E168B1FBF9F209FBA1
:10189000121050B9E0684045E06802D800F28A2092
:1018A00002E041F22A21081A2061206900EE100AA4
:1018B000F8EE400A80EE880A00F01AFD0346002286
:1018C00011464A48FFF756F9E068504504D351489D
:1018D000FFF7C4FEE560276168A041E0E06818B941
:1018E0004C48FFF77BFE2761E1684846B1FBF0F208
:1018F00009FB121151B9E1684145E16802D801F2D2
:10190000992102E041F23922511A2161E168B1FBCB
:10191000F0F209FB121001280AD1E0684045E068A6
:1019200002D800F2892002E041F22B21081A20613E
:10193000206900EE100AF8EE400A80EE880A00F0F6
:10194000D7FC0346002211462848FFF713F9E06848
:10195000504504D32F48FFF781FEE56027614CA076
:1019600000F01EFC4F49306888422ED120784E4A44
:10197000491420B101280AD0022826D120E01046BF
:10198000FFF728FA012820D12070A5601DE0A0688B
:10199000431CA360322818D31046FFF71BFA012816
:1019A0000CD1022020706068401C60606068617823
:1019B000B0FBF1F201FB1200606006E0257004E06C
:1019C0001046FFF707FA0028F8D0384930688842F7
:1019D00002D1E068401CE060BDEC028BBDE8F087FE
:1019E000004401400000002000007A447000002004
:1019F000576F726B4D6F646520303A20436F6E7382
:101A000074616E7420566F6C74616765202D315659
:101A10000D0A000014010020576F726B4D6F646552
:101A200020313A20436F6E7374616E7420566F6C70
:101A3000746167652030560D0A000000576F726BA5
:101A40004D6F646520323A20436F6E7374616E741B
:101A500020566F6C746167652031560D0A000000D6
:101A6000576F726B4D6F646520333A204F70656E0F
:101A700020436972637569740D0A0000576F726BB9
:101A80004D6F646520343A2043560D0A0000000073
:101A9000576F726B4D6F646520353A204450562065
:101AA0000D0A00000048014000080240001C0040F0
:101AB000704770B5040004D094F84100002510B1BF
:101AC00006E0012070BD84F84050204600F024F864
:101AD000242084F841002068C16821F40051C160CD
:101AE000204600F09DFA2068016921F490410161CF
:101AF0002068416921F02A0141612068C16841F4F0
:101B00000051C1606564202084F8410084F84200DF
:101B10006563002070BD000010B586B00446142136
:101B20006846FEF7A5FB13492068884220D1124879
:101B30000021026842F400320260006800F40030C4
:101B400005900D481038026842F0010202600068FA
:101B500000F0010005900C2000900220CDE9010169
:101B6000032003900720049069460448FFF744F8D7
:101B700006B010BD00440040403802400000024062
:101B80002DE9F843044690F84100984616460D4664
:101B9000202802D00220BDE8F88385B17EB1002064
:101BA0006064212084F84100FFF71AF9A684814679
:101BB000E684A0682027B0F5805F02D003E0012012
:101BC000E9E7206910B12E4600250EE000260CE062
:101BD0008021204600F0AAFAA8B9C6B116F8010B78
:101BE00021684860E08C401EE084E08C4B464FF05A
:101BF0000002CDF800800028EAD14FF040012046D5
:101C000000F094FA40B184F841700320C3E735F83E
:101C1000020BC0F30800E3E784F841700020BAE744
:101C2000FEE700007FB5002415480094019402945B
:101C30001249039401604FF48031C0E9011404613A
:101C4000047680F820400F49C0E90A140125C561D7
:101C5000C46080F830404561FEF748FE08B1FEF7E9
:101C600091FDCDE90045694605480294FEF78CFDDB
:101C7000002801D0FEF786FD7FBD00000020014056
:101C8000280000200100000F1CB50024104900941A
:101C90000E48019408600846FEF727FF08B1FEF7DA
:101CA00071FD00940022694609480194FEF7F6FE92
:101CB00008B1FEF767FD102269460548FEF7EEFE03
:101CC000002801D0FEF75EFD1CBD0000007400403E
:101CD0007000002000B587B014216846FEF7C8FAEE
:101CE00017480021026842F004020260026802F014
:101CF00004020592026842F080020260026802F06B
:101D000080020592026842F001020260026802F05D
:101D100001020592026842F002020260006800F0CF
:101D2000020005904FF4005000904FF40410CDE9EC
:101D3000010169460348FEF75FFF07B000BD0000E0
:101D400030380240000802400B4810B509490160D4
:101D500042F2CF01416000216322C0E90212016119
:101D60008161FFF7C5FB002803D0BDE81040FEF7F6
:101D700009BD10BD00440140840000200B4810B58F
:101D80000949016040F24731416000216322C0E906
:101D9000021201618161FFF7ABFB002803D0BDE8AF
:101DA0001040FEF7EFBC10BD00480140CC00002001
:101DB0000C4810B50A49016042F2CF014160002190
:101DC00040F2F312C0E9021201618161FFF790FB5A
:101DD000002803D0BDE81040FEF7D4BC10BD0000C1
:101DE000001C0040140100200C4810B50A49016095
:101DF0004FF4E1314160002181600C22C160C0E9F3
:101E000004128161C161FFF754FE002803D0BDE8D0
:101E10001040FEF7B7BC10BD004400405C0100203C
:101E2000FEE7FEE770477047FEF7E0BF30B593B0BE
:101E300034216846FEF71CFA14210DA8FEF718FAA3
:101E40001E480025016841F080510160006800F0E3
:101E5000805012901A48016821F4404141F48041B9
:101E600001600068022400F44040129001200390B9
:101E70001020009406940490CDE907504FF4A87008
:101E800009900420CDE90A0468460C94FFF74EF946
:101E900008B172B6FEE70DA90F2081E831004FF4BA
:101EA0008050CDE9100502210DA8FFF73BF800286E
:101EB00001D072B6FEE713B030BD000040380240DA
:101EC000007000400248016841F4700101607047F1
:101ED00088ED00E00148FFF7DABB0000CC000020ED
:101EE0000148FFF7D4BB0000840000200148FFF741
:101EF000CEBB000014010020F0B50268294C2A4D29
:101F00002A4E2B4F2B4B4FF0804CA04209D06045FE
:101F100007D0A84205D0B04203D0B84201D09842C1
:101F200004D122F0700E4A6842EA0E02A0421BD091
:101F3000604519D0A84217D0B04215D0B84213D08E
:101F4000984211D01C4DA8420ED01C4DA8420BD077
:101F50001B4DA84208D01B4DA84205D01A4DA842DF
:101F600002D01A4DA84203D122F44075CA682A4310
:101F70004D6922F080022A4302608A68C2620A68C0
:101F80008262A04201D0984201D109690163012116
:101F900041610169C90703D0016921F001010161B3
:101FA000F0BD0000000001400004004000080040B7
:101FB000000C00400004014000400140004401408A
:101FC0000048014000180040001C00400020004074
:101FD00001680C3151E8002F22F4907241E800238F
:101FE000002BF5D10168143151E8002F22F00102D5
:101FF00041E80023002BF5D1016B012909D10168CB
:102000000C3151E8002F22F0100241E80023002B90
:10201000F5D1202180F842100021016370470000B3
:1020200070B5044600680169E26821F4405111432B
:1020300001612169A068E2690843616911430843AD
:102040002168CA6849F20C639A430243CA60206857
:102050004169A26921F4407111434161314920680D
:10206000884202D03049884202D1FFF705F801E0EA
:10207000FEF7F2FFE2690023192164253226B2F54A
:10208000004F626828D0A0FB0101930F9200FEF779
:10209000B7F80146B0FBF5F06FF01802504301EBC2
:1020A000800006EB0010B0FBF5F000F0F002B1FB91
:1020B000F5F002EB0012B1FBF5F06FF01803584396
:1020C00001EB800006EB0010B0FBF5F000F00F0014
:1020D00021681044886070BDA0FB010192185B412B
:1020E000FEF78EF80146B0FBF5F00201B1FBF5F00A
:1020F0006FF01803584301EB800006EBC000B0FB03
:10210000F5F000F0F80002EB4002B1FBF5F05843A7
:1021100001EB800006EBC000B0FBF5F000F007001B
:10212000D6E7000000100140001401402DE9F843FB
:10213000984617460D460446089E24E0701C22D09F
:10214000FEF74EFEA0EB0800B0421AD8CEB12068D0
:10215000C168490717D5802D15D0402D13D00168CF
:10216000C94309070FD40168002540680090204644
:10217000FFF72EFF0820606484F840500120BDE87E
:10218000F8830320FBE72068006835EA000004D0EC
:102190000020B842D2D00020F1E70120F9E7FEE7A5
:1021A000014A024900F093B83523000824000020BA
:1021B0000907090E002804DB00F1E02080F8001474
:1021C000704700F00F0000F1E02080F8141D704708
:1021D00010B52DED020B2DED088B84B09DED0C0B91
:1021E00051EC100BFEF742F941EC180B9DED0C0B76
:1021F00053EC182B51EC100BFEF731F941EC190B95
:102200000D989FED290B10F0004F53EC102B51EC63
:10221000190B9FED21AB9FED22BB0ED0FEF76AF9A3
:102220000ED953EC1B2B51EC190BFEF77BF91CD28A
:1022300014E000BF41EC180B17E0FEF75BF906D283
:1022400053EC1A2B51EC180BFEF709F9F2E753EC9B
:102250001B2B51EC190BFEF765F906D853EC1A2B22
:1022600051EC180BFEF75AF8E4E78DED028B9DED6B
:102270000C0B18EE901A10EE900A8DED000B61F326
:102280001E0003909DED020B04B0BDEC088B02B064
:1022900010BD000000000000000000000000F03F42
:1022A000000000000000E03F000000000000E0BF70
:1022B00002E008C8121F08C1002AFAD1704770470F
:1022C000002001E001C1121F002AFBD170472DE957
:1022D000F04116460F460446002503E03946B04754
:1022E000641C6D1C20780028F8D12846BDE8F081D8
:1022F000DFED0E0A70B580EE201A9FED0D0A4FF447
:1023000080556C1E21EE000A10EE100AFDF7D4FF76
:1023100041EC100BFFF75CFF51EC100BFDF7B3FF26
:1023200080B2A84200D3204670BD00003333534032
:1023300000F07F4513B54FF6FF730122694602484E
:10234000FFF71EFC00981CBD5C010020FEF756FD47
:10235000FFF76CFDFFF7BEFCFFF764FCFFF794FC92
:10236000FFF742FDFFF7F0FCFFF708FDFFF720FD48
:1023700010211148FEF70FFC4FF4006423460022A1
:1023800010210D48FEF7F6FB00210B48FEF703FC79
:102390000022234611460848FEF7ECFB0748FEF7EB
:1023A000FFFA0748FFF71AF90648FFF717F906483A
:1023B000FFF754F9FEE7000070000020280000201D
:1023C00084000020CC000020140100200000000048
:1023D00000000000010203040607080900000000D5
:1023E000010203040424000800000020280000006B
:1023F000B02200082C2400082800002080050000DE
:10240000C0220008000600000000000000000000DC
:1024100000000000000000000100000010000000AB
:0C242000000000000024F4000000000098
:04000005080001C529
:00000001FF
